{
  "contractName": "CrowdfundingProject",
  "abi": [
    {
      "inputs": [],
      "stateMutability": "nonpayable",
      "type": "constructor"
    },
    {
      "inputs": [
        {
          "internalType": "string",
          "name": "_nameproject",
          "type": "string"
        },
        {
          "internalType": "string",
          "name": "_idproject",
          "type": "string"
        }
      ],
      "name": "setNameId",
      "outputs": [],
      "stateMutability": "nonpayable",
      "type": "function"
    },
    {
      "inputs": [],
      "name": "viewNameId",
      "outputs": [
        {
          "internalType": "string",
          "name": "_dato",
          "type": "string"
        }
      ],
      "stateMutability": "view",
      "type": "function"
    },
    {
      "inputs": [
        {
          "internalType": "uint256",
          "name": "_goal",
          "type": "uint256"
        }
      ],
      "name": "setGoal",
      "outputs": [],
      "stateMutability": "nonpayable",
      "type": "function"
    },
    {
      "inputs": [],
      "name": "viewGoal",
      "outputs": [
        {
          "internalType": "uint256",
          "name": "",
          "type": "uint256"
        }
      ],
      "stateMutability": "view",
      "type": "function"
    },
    {
      "inputs": [
        {
          "internalType": "bool",
          "name": "change",
          "type": "bool"
        }
      ],
      "name": "changeProjectState",
      "outputs": [],
      "stateMutability": "nonpayable",
      "type": "function"
    },
    {
      "inputs": [
        {
          "internalType": "uint256",
          "name": "amountSender",
          "type": "uint256"
        }
      ],
      "name": "fundproject",
      "outputs": [],
      "stateMutability": "payable",
      "type": "function"
    },
    {
      "inputs": [],
      "name": "viewRemaining",
      "outputs": [
        {
          "internalType": "uint256",
          "name": "",
          "type": "uint256"
        }
      ],
      "stateMutability": "view",
      "type": "function"
    },
    {
      "inputs": [],
      "name": "viewDon",
      "outputs": [
        {
          "internalType": "uint256",
          "name": "",
          "type": "uint256"
        }
      ],
      "stateMutability": "view",
      "type": "function"
    },
    {
      "inputs": [],
      "name": "viewCant",
      "outputs": [
        {
          "internalType": "uint256",
          "name": "",
          "type": "uint256"
        }
      ],
      "stateMutability": "view",
      "type": "function"
    }
  ],
  "bytecode": "0x608060405234801561001057600080fd5b50600060018190555033600360006101000a81548173ffffffffffffffffffffffffffffffffffffffff021916908373ffffffffffffffffffffffffffffffffffffffff160217905550600060028190555060016000806101000a81548160ff021916908315150217905550610f5a8061008b6000396000f3fe6080604052600436106100865760003560e01c8063bdeb35a211610059578063bdeb35a214610135578063d2828fdf14610160578063ebae33e11461017c578063f2777e55146101a5578063f58754f8146101d057610086565b80634347f52f1461008b5780634b29c448146100b6578063953bdf3a146100df5780639aeb5d481461010a575b600080fd5b34801561009757600080fd5b506100a06101f9565b6040516100ad919061056e565b60405180910390f35b3480156100c257600080fd5b506100dd60048036038101906100d891906105da565b610224565b005b3480156100eb57600080fd5b506100f46102be565b6040516101019190610616565b60405180910390f35b34801561011657600080fd5b5061011f6102c8565b60405161012c9190610616565b60405180910390f35b34801561014157600080fd5b5061014a6102e4565b6040516101579190610616565b60405180910390f35b61017a600480360381019061017591906105da565b6102ee565b005b34801561018857600080fd5b506101a3600480360381019061019e9190610766565b610404565b005b3480156101b157600080fd5b506101ba610428565b6040516101c79190610616565b60405180910390f35b3480156101dc57600080fd5b506101f760048036038101906101f29190610816565b610432565b005b606060056006604051602001610210929190610946565b604051602081830303815290604052905090565b600360009054906101000a900473ffffffffffffffffffffffffffffffffffffffff1673ffffffffffffffffffffffffffffffffffffffff163373ffffffffffffffffffffffffffffffffffffffff16146102b4576040517f08c379a00000000000000000000000000000000000000000000000000000000081526004016102ab90610a02565b60405180910390fd5b8060018190555050565b6000600754905090565b6000806002546001546102db9190610a51565b90508091505090565b6000600254905090565b60008054906101000a900460ff1661033b576040517f08c379a000000000000000000000000000000000000000000000000000000000815260040161033290610b1d565b60405180910390fd5b60015460025410610381576040517f08c379a000000000000000000000000000000000000000000000000000000000815260040161037890610baf565b60405180910390fd5b600154346002546103929190610bcf565b11156103d3576040517f08c379a00000000000000000000000000000000000000000000000000000000081526004016103ca90610c9b565b60405180910390fd5b80600260008282546103e59190610bcf565b9250508190555060016007546103fb9190610bcf565b60078190555050565b81600590816104139190610e52565b5080600690816104239190610e52565b505050565b6000600154905090565b600360009054906101000a900473ffffffffffffffffffffffffffffffffffffffff1673ffffffffffffffffffffffffffffffffffffffff163373ffffffffffffffffffffffffffffffffffffffff16146104c2576040517f08c379a00000000000000000000000000000000000000000000000000000000081526004016104b990610a02565b60405180910390fd5b806000806101000a81548160ff02191690831515021790555050565b600081519050919050565b600082825260208201905092915050565b60005b838110156105185780820151818401526020810190506104fd565b60008484015250505050565b6000601f19601f8301169050919050565b6000610540826104de565b61054a81856104e9565b935061055a8185602086016104fa565b61056381610524565b840191505092915050565b600060208201905081810360008301526105888184610535565b905092915050565b6000604051905090565b600080fd5b600080fd5b6000819050919050565b6105b7816105a4565b81146105c257600080fd5b50565b6000813590506105d4816105ae565b92915050565b6000602082840312156105f0576105ef61059a565b5b60006105fe848285016105c5565b91505092915050565b610610816105a4565b82525050565b600060208201905061062b6000830184610607565b92915050565b600080fd5b600080fd5b7f4e487b7100000000000000000000000000000000000000000000000000000000600052604160045260246000fd5b61067382610524565b810181811067ffffffffffffffff821117156106925761069161063b565b5b80604052505050565b60006106a5610590565b90506106b1828261066a565b919050565b600067ffffffffffffffff8211156106d1576106d061063b565b5b6106da82610524565b9050602081019050919050565b82818337600083830152505050565b6000610709610704846106b6565b61069b565b90508281526020810184848401111561072557610724610636565b5b6107308482856106e7565b509392505050565b600082601f83011261074d5761074c610631565b5b813561075d8482602086016106f6565b91505092915050565b6000806040838503121561077d5761077c61059a565b5b600083013567ffffffffffffffff81111561079b5761079a61059f565b5b6107a785828601610738565b925050602083013567ffffffffffffffff8111156107c8576107c761059f565b5b6107d485828601610738565b9150509250929050565b60008115159050919050565b6107f3816107de565b81146107fe57600080fd5b50565b600081359050610810816107ea565b92915050565b60006020828403121561082c5761082b61059a565b5b600061083a84828501610801565b91505092915050565b7f4e487b7100000000000000000000000000000000000000000000000000000000600052602260045260246000fd5b6000600282049050600182168061088a57607f821691505b60208210810361089d5761089c610843565b5b50919050565b600081905092915050565b60008190508160005260206000209050919050565b600081546108d081610872565b6108da81866108a3565b945060018216600081146108f5576001811461090a5761093d565b60ff198316865281151582028601935061093d565b610913856108ae565b60005b8381101561093557815481890152600182019150602081019050610916565b838801955050505b50505092915050565b600061095282856108c3565b915061095e82846108c3565b91508190509392505050565b7f64656265732064652073657220656c2070726f706574696172696f2064656c2060008201527f636f6e747261746f20706172612063616d6269617220656c206f626a6574697660208201527f6f00000000000000000000000000000000000000000000000000000000000000604082015250565b60006109ec6041836104e9565b91506109f78261096a565b606082019050919050565b60006020820190508181036000830152610a1b816109df565b9050919050565b7f4e487b7100000000000000000000000000000000000000000000000000000000600052601160045260246000fd5b6000610a5c826105a4565b9150610a67836105a4565b9250828203905081811115610a7f57610a7e610a22565b5b92915050565b7f656c2070726f706965746172696f20636572726f206c6120726563617563696160008201527f63696f6e20706f7220756e207469656d706f206d616e74656e6761736520616c60208201527f2074616e746f0000000000000000000000000000000000000000000000000000604082015250565b6000610b076046836104e9565b9150610b1282610a85565b606082019050919050565b60006020820190508181036000830152610b3681610afa565b9050919050565b7f656c206f626a657469766f207961207365206c6f67726f2c207961206e6f207060008201527f756564652066696e616e63696172206573746f00000000000000000000000000602082015250565b6000610b996033836104e9565b9150610ba482610b3d565b604082019050919050565b60006020820190508181036000830152610bc881610b8c565b9050919050565b6000610bda826105a4565b9150610be5836105a4565b9250828201905080821115610bfd57610bfc610a22565b5b92915050565b7f6e6f2073652070756564652061677265676172206d617320666f6e646f732c2060008201527f636865636120656c206d6f6e746f2072657374616e74652064656c206f626a6560208201527f7469766f00000000000000000000000000000000000000000000000000000000604082015250565b6000610c856044836104e9565b9150610c9082610c03565b606082019050919050565b60006020820190508181036000830152610cb481610c78565b9050919050565b60006020601f8301049050919050565b600082821b905092915050565b600060088302610d087fffffffffffffffffffffffffffffffffffffffffffffffffffffffffffffffff82610ccb565b610d128683610ccb565b95508019841693508086168417925050509392505050565b6000819050919050565b6000610d4f610d4a610d45846105a4565b610d2a565b6105a4565b9050919050565b6000819050919050565b610d6983610d34565b610d7d610d7582610d56565b848454610cd8565b825550505050565b600090565b610d92610d85565b610d9d818484610d60565b505050565b5b81811015610dc157610db6600082610d8a565b600181019050610da3565b5050565b601f821115610e0657610dd7816108ae565b610de084610cbb565b81016020851015610def578190505b610e03610dfb85610cbb565b830182610da2565b50505b505050565b600082821c905092915050565b6000610e2960001984600802610e0b565b1980831691505092915050565b6000610e428383610e18565b9150826002028217905092915050565b610e5b826104de565b67ffffffffffffffff811115610e7457610e7361063b565b5b610e7e8254610872565b610e89828285610dc5565b600060209050601f831160018114610ebc5760008415610eaa578287015190505b610eb48582610e36565b865550610f1c565b601f198416610eca866108ae565b60005b82811015610ef257848901518255600182019150602085019450602081019050610ecd565b86831015610f0f5784890151610f0b601f891682610e18565b8355505b6001600288020188555050505b50505050505056fea2646970667358221220b2698116ff56d99ac6977d2243324cee03b52496d55e67a2c176a2ebb684aab464736f6c63430008130033",
  "immutableReferences": {},
  "source": "// SPDX-License-Identifier: GPL-3.0\r\npragma solidity >=0.7.0 <0.9.0;\r\n\r\ncontract CrowdfundingProject {\r\n    //Aqui creamos nuestras variables\r\n    bool isFundable;\r\n    uint256 goal;\r\n    uint256 totalFunded;\r\n    address owner;\r\n    uint256 requiredFunds;\r\n    string nameproject;\r\n    string idproject;\r\n    uint cant;\r\n\r\n\r\n    //Inicializamos los valores, hay que recordar que el constructor se ejecuta solo una vez cuando se crea el contrato\r\n    constructor() {\r\n        goal = 0;\r\n        owner = msg.sender;\r\n        totalFunded = 0;\r\n        isFundable = true;\r\n    }\r\n\r\n    function setNameId(string memory _nameproject, string memory _idproject) public{\r\n        nameproject = _nameproject;\r\n        idproject = _idproject;\r\n    }\r\n\r\n    function viewNameId() public view returns (string memory _dato) {\r\n        _dato= string.concat(nameproject, idproject);\r\n        return _dato;\r\n    }\r\n\r\n    //No te preocupes por esto,luego lo aprenderemos. El modifier permite cambiar el\r\n    //comportamiento de funciones, en este caso solo queria asegurarme que solo el creador del contrato\r\n    //pudiera mover el goal\r\n    modifier onlyOwner() {\r\n        require(\r\n            msg.sender == owner,\r\n            \"debes de ser el propetiario del contrato para cambiar el objetivo\"\r\n        );\r\n        _;\r\n    }\r\n\r\n    //Aqui ponemos la meta a recaudar, solamente el que inicializa el contrato puede cambiar este\r\n    //valor\r\n    function setGoal(uint256 _goal) public onlyOwner {\r\n        goal = _goal;\r\n    }\r\n\r\n    function viewGoal() public view returns (uint256) {\r\n        return goal;\r\n    }\r\n\r\n    function changeProjectState(bool change) public onlyOwner {\r\n        isFundable = change;\r\n    }\r\n\r\n    //Aqui inicia la funcion para fondear el proyecto\r\n    function fundproject(uint amountSender) public payable {\r\n        //Primero evaluamos si el owner del contrato mantiene abiertas las donaciones (tal vez\r\n        //necesita reevaluar algo)\r\n        require(\r\n            isFundable,\r\n            \"el propietario cerro la recauciacion por un tiempo mantengase al tanto\"\r\n        );\r\n        //Comprobamos que el total que se ha fondeado sea menor a la meta\r\n        require(\r\n            totalFunded < goal,\r\n            \"el objetivo ya se logro, ya no puede financiar esto\"\r\n        );\r\n        //Despues nos aeguramos que la persona mande un minimo,en este caso arriba de 0\r\n        //require(msg.value != uint(0), \"Please add some funds to contribuite to crowdfunding project\");\r\n        //Comprobamos que el valor que quiere fondear no exceda con la meta que tenemos\r\n        require(\r\n            totalFunded + msg.value <= goal,\r\n            \"no se puede agregar mas fondos, checa el monto restante del objetivo\"\r\n        );\r\n        //Actualizamos el total que se ha fondeado al contrato\r\n        totalFunded += amountSender;\r\n        cant=cant+1;\r\n    }\r\n\r\n    //Esta funcion nos sirve para que la persona pueda ver cuanto se necesita para alcanzar la meta,\r\n    //asi no tendra que estar adivinando cuanto depositar maximo\r\n    function viewRemaining() public view returns (uint256) {\r\n        uint256 remainingFunds = goal - totalFunded;\r\n\r\n        return remainingFunds;\r\n    }\r\n\r\n    function viewDon() public view returns (uint256){\r\n        return totalFunded;\r\n    }\r\n\r\n    function viewCant() public view returns (uint){\r\n        return cant;\r\n    }\r\n}\r\n",
  "sourcePath": "C:\\blockchain\\Prueba foundme\\contracts\\CrowdfundingProject.sol",
  "compiler": {
    "name": "solc",
    "version": "0.8.19+commit.7dd6d404.Emscripten.clang"
  },
  "schemaVersion": "3.4.13",
  "updatedAt": "2023-03-29T09:00:19.909Z",
  "devdoc": {
    "kind": "dev",
    "methods": {},
    "version": 1
  },
  "userdoc": {
    "kind": "user",
    "methods": {},
    "version": 1
  }
}