{
  "_format": "hh-sol-artifact-1",
  "contractName": "VentaProducto",
  "sourceName": "contracts/VentaProducto.sol",
  "abi": [
    {
      "inputs": [],
      "stateMutability": "nonpayable",
      "type": "constructor"
    },
    {
      "anonymous": false,
      "inputs": [
        {
          "indexed": false,
          "internalType": "address",
          "name": "vendedor",
          "type": "address"
        },
        {
          "indexed": false,
          "internalType": "uint256",
          "name": "monto",
          "type": "uint256"
        }
      ],
      "name": "FondosRetirados",
      "type": "event"
    },
    {
      "anonymous": false,
      "inputs": [
        {
          "indexed": true,
          "internalType": "uint256",
          "name": "id",
          "type": "uint256"
        },
        {
          "indexed": false,
          "internalType": "string",
          "name": "nombre",
          "type": "string"
        },
        {
          "indexed": false,
          "internalType": "uint256",
          "name": "precio",
          "type": "uint256"
        },
        {
          "indexed": false,
          "internalType": "uint256",
          "name": "cantidad",
          "type": "uint256"
        }
      ],
      "name": "ProductoAgregado",
      "type": "event"
    },
    {
      "anonymous": false,
      "inputs": [
        {
          "indexed": true,
          "internalType": "uint256",
          "name": "id",
          "type": "uint256"
        },
        {
          "indexed": false,
          "internalType": "string",
          "name": "nombre",
          "type": "string"
        },
        {
          "indexed": false,
          "internalType": "uint256",
          "name": "precio",
          "type": "uint256"
        },
        {
          "indexed": false,
          "internalType": "uint256",
          "name": "cantidad",
          "type": "uint256"
        }
      ],
      "name": "ProductoComprado",
      "type": "event"
    },
    {
      "inputs": [
        {
          "internalType": "string",
          "name": "_nombre",
          "type": "string"
        },
        {
          "internalType": "uint256",
          "name": "_precio",
          "type": "uint256"
        },
        {
          "internalType": "uint256",
          "name": "_cantidad",
          "type": "uint256"
        }
      ],
      "name": "agregarProducto",
      "outputs": [],
      "stateMutability": "nonpayable",
      "type": "function"
    },
    {
      "inputs": [],
      "name": "cantidadProductos",
      "outputs": [
        {
          "internalType": "uint256",
          "name": "",
          "type": "uint256"
        }
      ],
      "stateMutability": "view",
      "type": "function"
    },
    {
      "inputs": [
        {
          "internalType": "uint256",
          "name": "_id",
          "type": "uint256"
        }
      ],
      "name": "cargarProductos",
      "outputs": [
        {
          "internalType": "uint256",
          "name": "id",
          "type": "uint256"
        },
        {
          "internalType": "string",
          "name": "nombre",
          "type": "string"
        },
        {
          "internalType": "uint256",
          "name": "precio",
          "type": "uint256"
        },
        {
          "internalType": "uint256",
          "name": "cantidad",
          "type": "uint256"
        }
      ],
      "stateMutability": "view",
      "type": "function"
    },
    {
      "inputs": [
        {
          "internalType": "uint256",
          "name": "_id",
          "type": "uint256"
        },
        {
          "internalType": "uint256",
          "name": "_cantidad",
          "type": "uint256"
        }
      ],
      "name": "comprarProducto",
      "outputs": [],
      "stateMutability": "payable",
      "type": "function"
    },
    {
      "inputs": [],
      "name": "consultarSaldo",
      "outputs": [
        {
          "internalType": "uint256",
          "name": "",
          "type": "uint256"
        }
      ],
      "stateMutability": "view",
      "type": "function"
    },
    {
      "inputs": [
        {
          "internalType": "uint256",
          "name": "_id",
          "type": "uint256"
        }
      ],
      "name": "getPrecio",
      "outputs": [
        {
          "internalType": "uint256",
          "name": "",
          "type": "uint256"
        }
      ],
      "stateMutability": "view",
      "type": "function"
    },
    {
      "inputs": [
        {
          "internalType": "uint256",
          "name": "",
          "type": "uint256"
        }
      ],
      "name": "productos",
      "outputs": [
        {
          "internalType": "uint256",
          "name": "id",
          "type": "uint256"
        },
        {
          "internalType": "string",
          "name": "nombre",
          "type": "string"
        },
        {
          "internalType": "uint256",
          "name": "precio",
          "type": "uint256"
        },
        {
          "internalType": "uint256",
          "name": "cantidad",
          "type": "uint256"
        }
      ],
      "stateMutability": "view",
      "type": "function"
    },
    {
      "inputs": [],
      "name": "retirarFondos",
      "outputs": [],
      "stateMutability": "nonpayable",
      "type": "function"
    },
    {
      "inputs": [
        {
          "internalType": "address",
          "name": "",
          "type": "address"
        }
      ],
      "name": "saldos",
      "outputs": [
        {
          "internalType": "uint256",
          "name": "",
          "type": "uint256"
        }
      ],
      "stateMutability": "view",
      "type": "function"
    }
  ],
  "bytecode": "0x608060405234801561001057600080fd5b5033600260006101000a81548173ffffffffffffffffffffffffffffffffffffffff021916908373ffffffffffffffffffffffffffffffffffffffff160217905550611583806100616000396000f3fe6080604052600436106100855760003560e01c806399553636116100595780639955363614610147578063c68c061214610187578063d09406ab146101c4578063d6f033fd146101ef578063fc70de1e1461021a57610085565b8062c5c4281461008a578063682df83a146100ca5780637e31def7146100f35780638af0188014610130575b600080fd5b34801561009657600080fd5b506100b160048036038101906100ac91906109df565b610236565b6040516100c19493929190610aab565b60405180910390f35b3480156100d657600080fd5b506100f160048036038101906100ec9190610c2c565b610311565b005b3480156100ff57600080fd5b5061011a600480360381019061011591906109df565b61047b565b6040516101279190610c9b565b60405180910390f35b34801561013c57600080fd5b506101456104c1565b005b34801561015357600080fd5b5061016e600480360381019061016991906109df565b61061d565b60405161017e9493929190610aab565b60405180910390f35b34801561019357600080fd5b506101ae60048036038101906101a99190610d14565b6106e5565b6040516101bb9190610c9b565b60405180910390f35b3480156101d057600080fd5b506101d96106fd565b6040516101e69190610c9b565b60405180910390f35b3480156101fb57600080fd5b5061020461070f565b6040516102119190610c9b565b60405180910390f35b610234600480360381019061022f9190610d41565b610756565b005b60006060600080600080868154811061025257610251610d81565b5b906000526020600020906004020190508060000154816001018260020154836003015482805461028190610ddf565b80601f01602080910402602001604051908101604052809291908181526020018280546102ad90610ddf565b80156102fa5780601f106102cf576101008083540402835291602001916102fa565b820191906000526020600020905b8154815290600101906020018083116102dd57829003601f168201915b505050505092509450945094509450509193509193565b600260009054906101000a900473ffffffffffffffffffffffffffffffffffffffff1673ffffffffffffffffffffffffffffffffffffffff163373ffffffffffffffffffffffffffffffffffffffff16146103a1576040517f08c379a000000000000000000000000000000000000000000000000000000000815260040161039890610e82565b60405180910390fd5b600060016000805490506103b59190610ed1565b90506000604051806080016040528083815260200186815260200185815260200184815250908060018154018082558091505060019003906000526020600020906004020160009091909190915060008201518160000155602082015181600101908161042291906110b1565b5060408201518160020155606082015181600301555050807fa487763d1e2c96514d0bcac06795d08572951d965d887758a3267760389a338285858560405161046d93929190611183565b60405180910390a250505050565b600080600060018461048d91906111c1565b8154811061049e5761049d610d81565b5b906000526020600020906004020190506000816002015490508092505050919050565b600260009054906101000a900473ffffffffffffffffffffffffffffffffffffffff1673ffffffffffffffffffffffffffffffffffffffff163373ffffffffffffffffffffffffffffffffffffffff1614610551576040517f08c379a000000000000000000000000000000000000000000000000000000000815260040161054890611267565b60405180910390fd5b6000479050600260009054906101000a900473ffffffffffffffffffffffffffffffffffffffff1673ffffffffffffffffffffffffffffffffffffffff166108fc829081150290604051600060405180830381858888f193505050501580156105be573d6000803e3d6000fd5b507f02d307af47058fdf27fae5b991017484be22b39ad49e647c2f799f2e7ef53d6a600260009054906101000a900473ffffffffffffffffffffffffffffffffffffffff16826040516106129291906112dc565b60405180910390a150565b6000818154811061062d57600080fd5b906000526020600020906004020160009150905080600001549080600101805461065690610ddf565b80601f016020809104026020016040519081016040528092919081815260200182805461068290610ddf565b80156106cf5780601f106106a4576101008083540402835291602001916106cf565b820191906000526020600020905b8154815290600101906020018083116106b257829003601f168201915b5050505050908060020154908060030154905084565b60016020528060005260406000206000915090505481565b60008060008054905090508091505090565b6000600160003373ffffffffffffffffffffffffffffffffffffffff1673ffffffffffffffffffffffffffffffffffffffff16815260200190815260200160002054905090565b60008211801561076b57506000805490508211155b6107aa576040517f08c379a00000000000000000000000000000000000000000000000000000000081526004016107a190611351565b60405180910390fd5b6000806001846107ba91906111c1565b815481106107cb576107ca610d81565b5b906000526020600020906004020190508181600301541015610822576040517f08c379a0000000000000000000000000000000000000000000000000000000008152600401610819906113bd565b60405180910390fd5b81816002015461083291906113dd565b3414610873576040517f08c379a000000000000000000000000000000000000000000000000000000000815260040161086a9061146b565b60405180910390fd5b8181600301600082825461088791906111c1565b9250508190555034600160003373ffffffffffffffffffffffffffffffffffffffff1673ffffffffffffffffffffffffffffffffffffffff16815260200190815260200160002060008282546108dd9190610ed1565b92505081905550600260009054906101000a900473ffffffffffffffffffffffffffffffffffffffff1673ffffffffffffffffffffffffffffffffffffffff166108fc349081150290604051600060405180830381858888f1935050505015801561094c573d6000803e3d6000fd5b50827fa918fffccdf922dc6f8eb3ed994cb4a85b99ea3d826b9a97dcd116591e9860b2826001018360020154856040516109889392919061150f565b60405180910390a2505050565b6000604051905090565b600080fd5b600080fd5b6000819050919050565b6109bc816109a9565b81146109c757600080fd5b50565b6000813590506109d9816109b3565b92915050565b6000602082840312156109f5576109f461099f565b5b6000610a03848285016109ca565b91505092915050565b610a15816109a9565b82525050565b600081519050919050565b600082825260208201905092915050565b60005b83811015610a55578082015181840152602081019050610a3a565b60008484015250505050565b6000601f19601f8301169050919050565b6000610a7d82610a1b565b610a878185610a26565b9350610a97818560208601610a37565b610aa081610a61565b840191505092915050565b6000608082019050610ac06000830187610a0c565b8181036020830152610ad28186610a72565b9050610ae16040830185610a0c565b610aee6060830184610a0c565b95945050505050565b600080fd5b600080fd5b7f4e487b7100000000000000000000000000000000000000000000000000000000600052604160045260246000fd5b610b3982610a61565b810181811067ffffffffffffffff82111715610b5857610b57610b01565b5b80604052505050565b6000610b6b610995565b9050610b778282610b30565b919050565b600067ffffffffffffffff821115610b9757610b96610b01565b5b610ba082610a61565b9050602081019050919050565b82818337600083830152505050565b6000610bcf610bca84610b7c565b610b61565b905082815260208101848484011115610beb57610bea610afc565b5b610bf6848285610bad565b509392505050565b600082601f830112610c1357610c12610af7565b5b8135610c23848260208601610bbc565b91505092915050565b600080600060608486031215610c4557610c4461099f565b5b600084013567ffffffffffffffff811115610c6357610c626109a4565b5b610c6f86828701610bfe565b9350506020610c80868287016109ca565b9250506040610c91868287016109ca565b9150509250925092565b6000602082019050610cb06000830184610a0c565b92915050565b600073ffffffffffffffffffffffffffffffffffffffff82169050919050565b6000610ce182610cb6565b9050919050565b610cf181610cd6565b8114610cfc57600080fd5b50565b600081359050610d0e81610ce8565b92915050565b600060208284031215610d2a57610d2961099f565b5b6000610d3884828501610cff565b91505092915050565b60008060408385031215610d5857610d5761099f565b5b6000610d66858286016109ca565b9250506020610d77858286016109ca565b9150509250929050565b7f4e487b7100000000000000000000000000000000000000000000000000000000600052603260045260246000fd5b7f4e487b7100000000000000000000000000000000000000000000000000000000600052602260045260246000fd5b60006002820490506001821680610df757607f821691505b602082108103610e0a57610e09610db0565b5b50919050565b7f536f6c6f20656c2076656e6465646f722070756564652061677265676172207060008201527f726f647563746f73000000000000000000000000000000000000000000000000602082015250565b6000610e6c602883610a26565b9150610e7782610e10565b604082019050919050565b60006020820190508181036000830152610e9b81610e5f565b9050919050565b7f4e487b7100000000000000000000000000000000000000000000000000000000600052601160045260246000fd5b6000610edc826109a9565b9150610ee7836109a9565b9250828201905080821115610eff57610efe610ea2565b5b92915050565b60008190508160005260206000209050919050565b60006020601f8301049050919050565b600082821b905092915050565b600060088302610f677fffffffffffffffffffffffffffffffffffffffffffffffffffffffffffffffff82610f2a565b610f718683610f2a565b95508019841693508086168417925050509392505050565b6000819050919050565b6000610fae610fa9610fa4846109a9565b610f89565b6109a9565b9050919050565b6000819050919050565b610fc883610f93565b610fdc610fd482610fb5565b848454610f37565b825550505050565b600090565b610ff1610fe4565b610ffc818484610fbf565b505050565b5b8181101561102057611015600082610fe9565b600181019050611002565b5050565b601f8211156110655761103681610f05565b61103f84610f1a565b8101602085101561104e578190505b61106261105a85610f1a565b830182611001565b50505b505050565b600082821c905092915050565b60006110886000198460080261106a565b1980831691505092915050565b60006110a18383611077565b9150826002028217905092915050565b6110ba82610a1b565b67ffffffffffffffff8111156110d3576110d2610b01565b5b6110dd8254610ddf565b6110e8828285611024565b600060209050601f83116001811461111b5760008415611109578287015190505b6111138582611095565b86555061117b565b601f19841661112986610f05565b60005b828110156111515784890151825560018201915060208501945060208101905061112c565b8683101561116e578489015161116a601f891682611077565b8355505b6001600288020188555050505b505050505050565b6000606082019050818103600083015261119d8186610a72565b90506111ac6020830185610a0c565b6111b96040830184610a0c565b949350505050565b60006111cc826109a9565b91506111d7836109a9565b92508282039050818111156111ef576111ee610ea2565b5b92915050565b7f536f6c6f20656c2076656e6465646f722070756564652072657469726172206660008201527f6f6e646f73000000000000000000000000000000000000000000000000000000602082015250565b6000611251602583610a26565b915061125c826111f5565b604082019050919050565b6000602082019050818103600083015261128081611244565b9050919050565b60006112a261129d61129884610cb6565b610f89565b610cb6565b9050919050565b60006112b482611287565b9050919050565b60006112c6826112a9565b9050919050565b6112d6816112bb565b82525050565b60006040820190506112f160008301856112cd565b6112fe6020830184610a0c565b9392505050565b7f50726f647563746f206e6f206578697374650000000000000000000000000000600082015250565b600061133b601283610a26565b915061134682611305565b602082019050919050565b6000602082019050818103600083015261136a8161132e565b9050919050565b7f43616e746964616420696e737566696369656e74650000000000000000000000600082015250565b60006113a7601583610a26565b91506113b282611371565b602082019050919050565b600060208201905081810360008301526113d68161139a565b9050919050565b60006113e8826109a9565b91506113f3836109a9565b9250828202611401816109a9565b9150828204841483151761141857611417610ea2565b5b5092915050565b7f5061676f20696e737566696369656e7465000000000000000000000000000000600082015250565b6000611455601183610a26565b91506114608261141f565b602082019050919050565b6000602082019050818103600083015261148481611448565b9050919050565b6000815461149881610ddf565b6114a28186610a26565b945060018216600081146114bd57600181146114d357611506565b60ff198316865281151560200286019350611506565b6114dc85610f05565b60005b838110156114fe578154818901526001820191506020810190506114df565b808801955050505b50505092915050565b60006060820190508181036000830152611529818661148b565b90506115386020830185610a0c565b6115456040830184610a0c565b94935050505056fea2646970667358221220312744b2d6f361746c40163627440febb53b96a187375d11e864cb23827e7ab664736f6c63430008120033",
  "linkReferences": {},
  "deployedLinkReferences": {}
}