{
  "contractName": "Datos",
  "abi": [
    {
      "inputs": [
        {
          "internalType": "address payable",
          "name": "receiver",
          "type": "address"
        }
      ],
      "name": "sendETH",
      "outputs": [],
      "stateMutability": "payable",
      "type": "function"
    }
  ],
  "bytecode": "0x608060405234801561001057600080fd5b5061014f806100206000396000f3fe60806040526004361061001e5760003560e01c806321b1e5f814610023575b600080fd5b61003d600480360381019061003891906100ec565b61003f565b005b8073ffffffffffffffffffffffffffffffffffffffff166108fc349081150290604051600060405180830381858888f19350505050158015610085573d6000803e3d6000fd5b5050565b600080fd5b600073ffffffffffffffffffffffffffffffffffffffff82169050919050565b60006100b98261008e565b9050919050565b6100c9816100ae565b81146100d457600080fd5b50565b6000813590506100e6816100c0565b92915050565b60006020828403121561010257610101610089565b5b6000610110848285016100d7565b9150509291505056fea264697066735822122042a9cb075407cf1e43f4f8bbed3d35761c4e43da60b3d94f06330e0ed16fdd1364736f6c63430008130033",
  "immutableReferences": {},
  "source": "// SPDX-License-Identifier: GPL-3.0\r\npragma solidity >=0.8.2 <0.9.0;\r\n\r\ncontract Datos{\r\n\r\n    function sendETH(address payable receiver) public payable{\r\n        receiver.transfer(msg.value);\r\n    }\r\n\r\n    /**uint public idNumber;\r\n    bool public isWorking;\r\n    string public name;\r\n    address public wallet;\r\n\r\n    constructor (){\r\n        wallet = msg.sender;\r\n    }\r\n\r\n    function set(uint _idNumber, bool _isWorking, string memory _name) public {\r\n        idNumber=_idNumber;\r\n        isWorking= _isWorking;\r\n        name =_name;\r\n    }\r\n\r\n\r\n    function retNum() public view returns (uint){\r\n        return idNumber;\r\n    }\r\n     function retWork() public view returns (bool){\r\n        return isWorking;\r\n    }\r\n     function retName() public view returns (string memory){\r\n        return name;\r\n    }\r\n    function retWallet() public view returns (address){\r\n        return wallet;\r\n    }**/\r\n\r\n\r\n\r\n}\r\n",
  "sourcePath": "C:\\PruebaSOLIDITY\\contracts\\Datos.sol",
  "compiler": {
    "name": "solc",
    "version": "0.8.19+commit.7dd6d404.Emscripten.clang"
  },
  "schemaVersion": "3.4.13",
  "updatedAt": "2023-03-29T01:39:10.441Z",
  "devdoc": {
    "kind": "dev",
    "methods": {},
    "version": 1
  },
  "userdoc": {
    "kind": "user",
    "methods": {},
    "version": 1
  }
}