{
  "_format": "hh-sol-artifact-1",
  "contractName": "Crowfoundme",
  "sourceName": "contracts/Crowfoundme.sol",
  "abi": [
    {
      "inputs": [
        {
          "internalType": "uint256",
          "name": "_projectId",
          "type": "uint256"
        },
        {
          "internalType": "string",
          "name": "_projectName",
          "type": "string"
        },
        {
          "internalType": "uint256",
          "name": "_fundingGoal",
          "type": "uint256"
        },
        {
          "internalType": "uint256",
          "name": "_deadline",
          "type": "uint256"
        }
      ],
      "stateMutability": "nonpayable",
      "type": "constructor"
    },
    {
      "inputs": [],
      "name": "amountRaised",
      "outputs": [
        {
          "internalType": "uint256",
          "name": "",
          "type": "uint256"
        }
      ],
      "stateMutability": "view",
      "type": "function"
    },
    {
      "inputs": [
        {
          "internalType": "address",
          "name": "",
          "type": "address"
        }
      ],
      "name": "balanceOf",
      "outputs": [
        {
          "internalType": "uint256",
          "name": "",
          "type": "uint256"
        }
      ],
      "stateMutability": "view",
      "type": "function"
    },
    {
      "inputs": [
        {
          "internalType": "string",
          "name": "_newState",
          "type": "string"
        }
      ],
      "name": "changeProjectState",
      "outputs": [],
      "stateMutability": "nonpayable",
      "type": "function"
    },
    {
      "inputs": [],
      "name": "contractAddress",
      "outputs": [
        {
          "internalType": "address",
          "name": "",
          "type": "address"
        }
      ],
      "stateMutability": "view",
      "type": "function"
    },
    {
      "inputs": [],
      "name": "deadline",
      "outputs": [
        {
          "internalType": "uint256",
          "name": "",
          "type": "uint256"
        }
      ],
      "stateMutability": "view",
      "type": "function"
    },
    {
      "inputs": [
        {
          "internalType": "address",
          "name": "_contributor",
          "type": "address"
        }
      ],
      "name": "fundProject",
      "outputs": [],
      "stateMutability": "payable",
      "type": "function"
    },
    {
      "inputs": [],
      "name": "fundingComplete",
      "outputs": [
        {
          "internalType": "bool",
          "name": "",
          "type": "bool"
        }
      ],
      "stateMutability": "view",
      "type": "function"
    },
    {
      "inputs": [],
      "name": "fundingGoal",
      "outputs": [
        {
          "internalType": "uint256",
          "name": "",
          "type": "uint256"
        }
      ],
      "stateMutability": "view",
      "type": "function"
    },
    {
      "inputs": [],
      "name": "getAmountRaised",
      "outputs": [
        {
          "internalType": "uint256",
          "name": "",
          "type": "uint256"
        }
      ],
      "stateMutability": "view",
      "type": "function"
    },
    {
      "inputs": [],
      "name": "getContractAddress",
      "outputs": [
        {
          "internalType": "address",
          "name": "",
          "type": "address"
        }
      ],
      "stateMutability": "view",
      "type": "function"
    },
    {
      "inputs": [
        {
          "internalType": "string",
          "name": "_newName",
          "type": "string"
        },
        {
          "internalType": "uint256",
          "name": "_newFundingGoal",
          "type": "uint256"
        },
        {
          "internalType": "uint256",
          "name": "_newDeadline",
          "type": "uint256"
        }
      ],
      "name": "modifyProjectData",
      "outputs": [],
      "stateMutability": "nonpayable",
      "type": "function"
    },
    {
      "inputs": [],
      "name": "owner",
      "outputs": [
        {
          "internalType": "address payable",
          "name": "",
          "type": "address"
        }
      ],
      "stateMutability": "view",
      "type": "function"
    },
    {
      "inputs": [],
      "name": "projectId",
      "outputs": [
        {
          "internalType": "uint256",
          "name": "",
          "type": "uint256"
        }
      ],
      "stateMutability": "view",
      "type": "function"
    },
    {
      "inputs": [],
      "name": "projectName",
      "outputs": [
        {
          "internalType": "string",
          "name": "",
          "type": "string"
        }
      ],
      "stateMutability": "view",
      "type": "function"
    },
    {
      "inputs": [],
      "name": "projectState",
      "outputs": [
        {
          "internalType": "string",
          "name": "",
          "type": "string"
        }
      ],
      "stateMutability": "view",
      "type": "function"
    },
    {
      "inputs": [],
      "name": "withdraw",
      "outputs": [],
      "stateMutability": "nonpayable",
      "type": "function"
    }
  ],
  "bytecode": "0x60806040523480156200001157600080fd5b5060405162001fc238038062001fc2833981810160405281019062000037919062000326565b336000806101000a81548173ffffffffffffffffffffffffffffffffffffffff021916908373ffffffffffffffffffffffffffffffffffffffff1602179055508360028190555082600390816200008f9190620005f8565b50816004819055508042620000a591906200070e565b6006819055506000600860006101000a81548160ff0219169083151502179055506040518060400160405280600681526020017f4163746976650000000000000000000000000000000000000000000000000000815250600990816200010c9190620005f8565b5030600160006101000a81548173ffffffffffffffffffffffffffffffffffffffff021916908373ffffffffffffffffffffffffffffffffffffffff1602179055505050505062000749565b6000604051905090565b600080fd5b600080fd5b6000819050919050565b62000181816200016c565b81146200018d57600080fd5b50565b600081519050620001a18162000176565b92915050565b600080fd5b600080fd5b6000601f19601f8301169050919050565b7f4e487b7100000000000000000000000000000000000000000000000000000000600052604160045260246000fd5b620001fc82620001b1565b810181811067ffffffffffffffff821117156200021e576200021d620001c2565b5b80604052505050565b60006200023362000158565b9050620002418282620001f1565b919050565b600067ffffffffffffffff821115620002645762000263620001c2565b5b6200026f82620001b1565b9050602081019050919050565b60005b838110156200029c5780820151818401526020810190506200027f565b60008484015250505050565b6000620002bf620002b98462000246565b62000227565b905082815260208101848484011115620002de57620002dd620001ac565b5b620002eb8482856200027c565b509392505050565b600082601f8301126200030b576200030a620001a7565b5b81516200031d848260208601620002a8565b91505092915050565b6000806000806080858703121562000343576200034262000162565b5b6000620003538782880162000190565b945050602085015167ffffffffffffffff81111562000377576200037662000167565b5b6200038587828801620002f3565b9350506040620003988782880162000190565b9250506060620003ab8782880162000190565b91505092959194509250565b600081519050919050565b7f4e487b7100000000000000000000000000000000000000000000000000000000600052602260045260246000fd5b600060028204905060018216806200040a57607f821691505b60208210810362000420576200041f620003c2565b5b50919050565b60008190508160005260206000209050919050565b60006020601f8301049050919050565b600082821b905092915050565b6000600883026200048a7fffffffffffffffffffffffffffffffffffffffffffffffffffffffffffffffff826200044b565b6200049686836200044b565b95508019841693508086168417925050509392505050565b6000819050919050565b6000620004d9620004d3620004cd846200016c565b620004ae565b6200016c565b9050919050565b6000819050919050565b620004f583620004b8565b6200050d6200050482620004e0565b84845462000458565b825550505050565b600090565b6200052462000515565b62000531818484620004ea565b505050565b5b8181101562000559576200054d6000826200051a565b60018101905062000537565b5050565b601f821115620005a857620005728162000426565b6200057d846200043b565b810160208510156200058d578190505b620005a56200059c856200043b565b83018262000536565b50505b505050565b600082821c905092915050565b6000620005cd60001984600802620005ad565b1980831691505092915050565b6000620005e88383620005ba565b9150826002028217905092915050565b6200060382620003b7565b67ffffffffffffffff8111156200061f576200061e620001c2565b5b6200062b8254620003f1565b620006388282856200055d565b600060209050601f8311600181146200067057600084156200065b578287015190505b620006678582620005da565b865550620006d7565b601f198416620006808662000426565b60005b82811015620006aa5784890151825560018201915060208501945060208101905062000683565b86831015620006ca5784890151620006c6601f891682620005ba565b8355505b6001600288020188555050505b505050505050565b7f4e487b7100000000000000000000000000000000000000000000000000000000600052601160045260246000fd5b60006200071b826200016c565b915062000728836200016c565b9250828201905080821115620007435762000742620006df565b5b92915050565b61186980620007596000396000f3fe6080604052600436106100f35760003560e01c80637b3e5e7b1161008a578063b767050d11610059578063b767050d146102fa578063d57906f014610323578063f6b4dfb41461034c578063f74cd9b914610377576100f3565b80637b3e5e7b1461024e5780638da5cb5b14610279578063930f5543146102a45780639a33e300146102cf576100f3565b80636d1af018116100c65780636d1af0181461019057806370a08231146101bb578063748807ab146101f85780637a3a0e8414610223576100f3565b806329dcb0cf146100f857806332a2c5d0146101235780633ccfd60b1461014e5780633fafa12714610165575b600080fd5b34801561010457600080fd5b5061010d610393565b60405161011a9190610b0a565b60405180910390f35b34801561012f57600080fd5b50610138610399565b6040516101459190610b66565b60405180910390f35b34801561015a57600080fd5b506101636103c3565b005b34801561017157600080fd5b5061017a610501565b6040516101879190610b0a565b60405180910390f35b34801561019c57600080fd5b506101a5610507565b6040516101b29190610b0a565b60405180910390f35b3480156101c757600080fd5b506101e260048036038101906101dd9190610bc1565b610511565b6040516101ef9190610b0a565b60405180910390f35b34801561020457600080fd5b5061020d610529565b60405161021a9190610c7e565b60405180910390f35b34801561022f57600080fd5b506102386105b7565b6040516102459190610b0a565b60405180910390f35b34801561025a57600080fd5b506102636105bd565b6040516102709190610b0a565b60405180910390f35b34801561028557600080fd5b5061028e6105c3565b60405161029b9190610cc1565b60405180910390f35b3480156102b057600080fd5b506102b96105e7565b6040516102c69190610cf7565b60405180910390f35b3480156102db57600080fd5b506102e46105fa565b6040516102f19190610c7e565b60405180910390f35b34801561030657600080fd5b50610321600480360381019061031c9190610e47565b610688565b005b34801561032f57600080fd5b5061034a60048036038101906103459190610ebc565b610729565b005b34801561035857600080fd5b50610361610844565b60405161036e9190610b66565b60405180910390f35b610391600480360381019061038c9190610bc1565b61086a565b005b60065481565b6000600160009054906101000a900473ffffffffffffffffffffffffffffffffffffffff16905090565b60008054906101000a900473ffffffffffffffffffffffffffffffffffffffff1673ffffffffffffffffffffffffffffffffffffffff163373ffffffffffffffffffffffffffffffffffffffff1614610451576040517f08c379a000000000000000000000000000000000000000000000000000000000815260040161044890610f9d565b60405180910390fd5b6004546005541015610498576040517f08c379a000000000000000000000000000000000000000000000000000000000815260040161048f9061102f565b60405180910390fd5b60008054906101000a900473ffffffffffffffffffffffffffffffffffffffff1673ffffffffffffffffffffffffffffffffffffffff166108fc479081150290604051600060405180830381858888f193505050501580156104fe573d6000803e3d6000fd5b50565b60025481565b6000600554905090565b60076020528060005260406000206000915090505481565b600980546105369061107e565b80601f01602080910402602001604051908101604052809291908181526020018280546105629061107e565b80156105af5780601f10610584576101008083540402835291602001916105af565b820191906000526020600020905b81548152906001019060200180831161059257829003601f168201915b505050505081565b60045481565b60055481565b60008054906101000a900473ffffffffffffffffffffffffffffffffffffffff1681565b600860009054906101000a900460ff1681565b600380546106079061107e565b80601f01602080910402602001604051908101604052809291908181526020018280546106339061107e565b80156106805780601f1061065557610100808354040283529160200191610680565b820191906000526020600020905b81548152906001019060200180831161066357829003601f168201915b505050505081565b60008054906101000a900473ffffffffffffffffffffffffffffffffffffffff1673ffffffffffffffffffffffffffffffffffffffff163373ffffffffffffffffffffffffffffffffffffffff1614610716576040517f08c379a000000000000000000000000000000000000000000000000000000000815260040161070d90611121565b60405180910390fd5b806009908161072591906112ed565b5050565b60008054906101000a900473ffffffffffffffffffffffffffffffffffffffff1673ffffffffffffffffffffffffffffffffffffffff163373ffffffffffffffffffffffffffffffffffffffff16146107b7576040517f08c379a00000000000000000000000000000000000000000000000000000000081526004016107ae90611431565b60405180910390fd5b60065442106107fb576040517f08c379a00000000000000000000000000000000000000000000000000000000081526004016107f2906114c3565b60405180910390fd5b826003908161080a91906112ed565b5081600481905550804261081e9190611512565b6006819055506000600860006101000a81548160ff021916908315150217905550505050565b600160009054906101000a900473ffffffffffffffffffffffffffffffffffffffff1681565b7ff07b88471cd28dc438f2291190512bd968fbd79b8c86b9ed015e51c1261d911f600960405160200161089d91906115d4565b60405160208183030381529060405280519060200120146108f3576040517f08c379a00000000000000000000000000000000000000000000000000000000081526004016108ea90611637565b60405180910390fd5b6006544210610937576040517f08c379a000000000000000000000000000000000000000000000000000000000815260040161092e906114c3565b60405180910390fd5b60008054906101000a900473ffffffffffffffffffffffffffffffffffffffff1673ffffffffffffffffffffffffffffffffffffffff168173ffffffffffffffffffffffffffffffffffffffff16036109c5576040517f08c379a00000000000000000000000000000000000000000000000000000000081526004016109bc906116ef565b60405180910390fd5b60003411610a08576040517f08c379a00000000000000000000000000000000000000000000000000000000081526004016109ff90611781565b60405180910390fd5b600860009054906101000a900460ff1615610a58576040517f08c379a0000000000000000000000000000000000000000000000000000000008152600401610a4f90611813565b60405180910390fd5b34600760008373ffffffffffffffffffffffffffffffffffffffff1673ffffffffffffffffffffffffffffffffffffffff1681526020019081526020016000206000828254610aa79190611512565b925050819055503460056000828254610ac09190611512565b9250508190555060045460055410610aee576001600860006101000a81548160ff0219169083151502179055505b50565b6000819050919050565b610b0481610af1565b82525050565b6000602082019050610b1f6000830184610afb565b92915050565b600073ffffffffffffffffffffffffffffffffffffffff82169050919050565b6000610b5082610b25565b9050919050565b610b6081610b45565b82525050565b6000602082019050610b7b6000830184610b57565b92915050565b6000604051905090565b600080fd5b600080fd5b610b9e81610b45565b8114610ba957600080fd5b50565b600081359050610bbb81610b95565b92915050565b600060208284031215610bd757610bd6610b8b565b5b6000610be584828501610bac565b91505092915050565b600081519050919050565b600082825260208201905092915050565b60005b83811015610c28578082015181840152602081019050610c0d565b60008484015250505050565b6000601f19601f8301169050919050565b6000610c5082610bee565b610c5a8185610bf9565b9350610c6a818560208601610c0a565b610c7381610c34565b840191505092915050565b60006020820190508181036000830152610c988184610c45565b905092915050565b6000610cab82610b25565b9050919050565b610cbb81610ca0565b82525050565b6000602082019050610cd66000830184610cb2565b92915050565b60008115159050919050565b610cf181610cdc565b82525050565b6000602082019050610d0c6000830184610ce8565b92915050565b600080fd5b600080fd5b7f4e487b7100000000000000000000000000000000000000000000000000000000600052604160045260246000fd5b610d5482610c34565b810181811067ffffffffffffffff82111715610d7357610d72610d1c565b5b80604052505050565b6000610d86610b81565b9050610d928282610d4b565b919050565b600067ffffffffffffffff821115610db257610db1610d1c565b5b610dbb82610c34565b9050602081019050919050565b82818337600083830152505050565b6000610dea610de584610d97565b610d7c565b905082815260208101848484011115610e0657610e05610d17565b5b610e11848285610dc8565b509392505050565b600082601f830112610e2e57610e2d610d12565b5b8135610e3e848260208601610dd7565b91505092915050565b600060208284031215610e5d57610e5c610b8b565b5b600082013567ffffffffffffffff811115610e7b57610e7a610b90565b5b610e8784828501610e19565b91505092915050565b610e9981610af1565b8114610ea457600080fd5b50565b600081359050610eb681610e90565b92915050565b600080600060608486031215610ed557610ed4610b8b565b5b600084013567ffffffffffffffff811115610ef357610ef2610b90565b5b610eff86828701610e19565b9350506020610f1086828701610ea7565b9250506040610f2186828701610ea7565b9150509250925092565b7f4f6e6c7920746865206f776e6572206f662074686520636f6e7472616374206360008201527f616e2077697468647261772066756e64732e0000000000000000000000000000602082015250565b6000610f87603283610bf9565b9150610f9282610f2b565b604082019050919050565b60006020820190508181036000830152610fb681610f7a565b9050919050565b7f46756e64696e6720676f616c20686173206e6f74206265656e2072656163686560008201527f64207965742e0000000000000000000000000000000000000000000000000000602082015250565b6000611019602683610bf9565b915061102482610fbd565b604082019050919050565b600060208201905081810360008301526110488161100c565b9050919050565b7f4e487b7100000000000000000000000000000000000000000000000000000000600052602260045260246000fd5b6000600282049050600182168061109657607f821691505b6020821081036110a9576110a861104f565b5b50919050565b7f4f6e6c7920746865206f776e6572206f662074686520636f6e7472616374206360008201527f616e206368616e67652070726f6a6563742073746174652e0000000000000000602082015250565b600061110b603883610bf9565b9150611116826110af565b604082019050919050565b6000602082019050818103600083015261113a816110fe565b9050919050565b60008190508160005260206000209050919050565b60006020601f8301049050919050565b600082821b905092915050565b6000600883026111a37fffffffffffffffffffffffffffffffffffffffffffffffffffffffffffffffff82611166565b6111ad8683611166565b95508019841693508086168417925050509392505050565b6000819050919050565b60006111ea6111e56111e084610af1565b6111c5565b610af1565b9050919050565b6000819050919050565b611204836111cf565b611218611210826111f1565b848454611173565b825550505050565b600090565b61122d611220565b6112388184846111fb565b505050565b5b8181101561125c57611251600082611225565b60018101905061123e565b5050565b601f8211156112a15761127281611141565b61127b84611156565b8101602085101561128a578190505b61129e61129685611156565b83018261123d565b50505b505050565b600082821c905092915050565b60006112c4600019846008026112a6565b1980831691505092915050565b60006112dd83836112b3565b9150826002028217905092915050565b6112f682610bee565b67ffffffffffffffff81111561130f5761130e610d1c565b5b611319825461107e565b611324828285611260565b600060209050601f8311600181146113575760008415611345578287015190505b61134f85826112d1565b8655506113b7565b601f19841661136586611141565b60005b8281101561138d57848901518255600182019150602085019450602081019050611368565b868310156113aa57848901516113a6601f8916826112b3565b8355505b6001600288020188555050505b505050505050565b7f4f6e6c7920746865206f776e6572206f662074686520636f6e7472616374206360008201527f616e206d6f646966792070726f6a65637420646174612e000000000000000000602082015250565b600061141b603783610bf9565b9150611426826113bf565b604082019050919050565b6000602082019050818103600083015261144a8161140e565b9050919050565b7f54686520646561646c696e6520666f7220636f6e747269627574696f6e73206860008201527f6173207061737365642e00000000000000000000000000000000000000000000602082015250565b60006114ad602a83610bf9565b91506114b882611451565b604082019050919050565b600060208201905081810360008301526114dc816114a0565b9050919050565b7f4e487b7100000000000000000000000000000000000000000000000000000000600052601160045260246000fd5b600061151d82610af1565b915061152883610af1565b92508282019050808211156115405761153f6114e3565b5b92915050565b600081905092915050565b6000815461155e8161107e565b6115688186611546565b945060018216600081146115835760018114611598576115cb565b60ff19831686528115158202860193506115cb565b6115a185611141565b60005b838110156115c3578154818901526001820191506020810190506115a4565b838801955050505b50505092915050565b60006115e08284611551565b915081905092915050565b7f5468652070726f6a656374206973206e6f74206163746976652e000000000000600082015250565b6000611621601a83610bf9565b915061162c826115eb565b602082019050919050565b6000602082019050818103600083015261165081611614565b9050919050565b7f546865206f776e6572206f662074686520636f6e74726163742063616e6e6f7460008201527f20636f6e7472696275746520746f207468656972206f776e2070726f6a65637460208201527f2e00000000000000000000000000000000000000000000000000000000000000604082015250565b60006116d9604183610bf9565b91506116e482611657565b606082019050919050565b60006020820190508181036000830152611708816116cc565b9050919050565b7f436f6e747269627574696f6e20616d6f756e74206d757374206265206772656160008201527f746572207468616e207a65726f2e000000000000000000000000000000000000602082015250565b600061176b602e83610bf9565b91506117768261170f565b604082019050919050565b6000602082019050818103600083015261179a8161175e565b9050919050565b7f5468652066756e64696e6720676f616c2068617320616c72656164792062656560008201527f6e20726561636865642e00000000000000000000000000000000000000000000602082015250565b60006117fd602a83610bf9565b9150611808826117a1565b604082019050919050565b6000602082019050818103600083015261182c816117f0565b905091905056fea2646970667358221220ccd801465e301a351481a90b921f3094dbab460cff007a76731dd88dfb3f761a64736f6c63430008120033",
  "linkReferences": {},
  "deployedLinkReferences": {}
}